:020000040800F2
:1000000040110120CD0800089D050008B90800082E
:10001000B9080008B9080008B90800080000000085
:10002000000000000000000000000000D1090008EE
:10003000B9080008000000009D0900081D1800080C
:10004000410B0008410B0008410B0008410B000860
:10005000410B0008410B0008410B0008410B000850
:10006000410B0008410B0008410B0008410B000840
:10007000410B0008410B0008410B0008410B000830
:10008000410B0008410B0008410B0008410B000820
:10009000410B0008410B0008410B0008410B000810
:1000A000410B0008410B0008410B0008410B000800
:1000B000410B0008410B0008410B0008410B0008F0
:1000C000410B0008410B0008410B0008410B0008E0
:1000D000410B0008410B0008410B0008410B0008D0
:1000E000410B0008410B0008410B0008410B0008C0
:1000F000410B0008410B0008410B0008410B0008B0
:10010000410B0008410B0008410B0008410B00089F
:10011000410B0008410B0008410B0008410B00088F
:10012000410B0008410B0008410B0008410B00087F
:10013000410B0008410B0008410B0008410B00086F
:10014000410B0008410B0008410B0008410B00085F
:10015000410B0008410B0008410B0008410B00084F
:10016000410B0008410B0008410B0008410B00083F
:10017000410B0008410B0008410B0008410B00082F
:10018000410B0008410B0008410B0008410B00081F
:10019000410B0008410B0008410B0008410B00080F
:1001A000410B0008410B0008410B0008410B0008FF
:1001B000410B0008410B0008410B0008410B0008EF
:1001C000410B0008410B0008410B0008410B0008DF
:1001D000410B0008410B0008410B0008410B0008CF
:1001E00053B94AB9002908BF00281CBF4FF0FF319E
:1001F0004FF0FF3000F00CB8ADF1080C6DE904CE03
:1002000000F008F8DDF804E0DDE9022304B07047EF
:10021000704700BF2DE9F04786468C460846089E89
:10022000154674461946002B40F0C2808542B2FA4A
:1002300082F245D94AB1C2F1200300FA02FC2EFA3B
:1002400003F3954043EA0C0C94404FEA154EA8B2D4
:10025000BCFBFEF8230C0EFB18CC08FB00F943EAAC
:100260000C43994528D9EB1808F1FF3704D299457A
:1002700002D9A8F102072B44A3EB0903A4B2B3FBF4
:10028000FEFC0EFB1C330CFB00F044EA0344A042CE
:1002900014D92C190CF1FF3304D2A04202D9ACF1CD
:1002A00002032C44241A43EA07401EB1D440002321
:1002B00034607360BDE8F0874746DDE76346F1E7E9
:1002C00092BB431B01214FEA154EAFB2B3FBFEFCBC
:1002D000200C0EFB1C330CFB07F840EA0343984547
:1002E00062D9EB180CF1FF3004D2984502D9ACF179
:1002F00002002B44A3EB0803A4B2B3FBFEFC0EFBED
:100300001C330CFB07F744EA0344A7424ED92C19CF
:100310000CF1FF3304D2A74202D9ACF102032C4402
:10032000E41B43EA0040C0E7C2F1200320FA03F1D6
:10033000954090402EFA03F303434FEA154EAFB2B7
:10034000B1FBFEFC0EFB1C10190C0CFB07F841EA7C
:100350000041884504FA02F422D969180CF1FF30F3
:1003600004D2884502D9ACF102002944A1EB08016E
:100370009BB2B1FBFEFC0EFB1C110CFB07F743EA22
:1003800001439F420ED9EB180CF1FF3104D29F427A
:1003900002D9ACF102012B44DB1B41EA004192E798
:1003A0006046E3E76146F7E76046A3E76346B7E7E1
:1003B000834206D916B9002108467BE7C6E900E06A
:1003C000F9E7B3FA83F78FB9834201D3724508D8AE
:1003D000BEEB020460EB030301209C461EB9002122
:1003E00068E73846FAE7C6E9004CF8E7C7F1200CA1
:1003F000BB4022FA0CF41C432EFA0CF120FA0CF349
:10040000B84001434FEA14490EFA07F5B3FBF9F877
:100410001FFA84FE09FB18300B0C08FB0EFA43EAA6
:1004200000439A4502FA07F240D9E31808F1FF3079
:1004300004D29A4502D9A8F102002344A3EB0A038F
:1004400089B2B3FBF9F809FB183308FB0EFE41EA49
:1004500003418E452CD9611808F1FF3304D28E4533
:1004600002D9A8F10203214443EA0040A0FB02980C
:10047000A1EB0E014145CE46434602D306D14D4580
:1004800004D2B9EB020E68EB04030138002EA6D0AB
:10049000B5EB0E0261EB030101FA0CFC22FA07F343
:1004A0004CEA0303F940C6E9003198E74046C5E746
:1004B0004346D9E7064C074808B502F083FB2046BF
:1004C00002F080FB002142F2107001F0A9FEF6E775
:1004D000613C0008263C0008014B1B68184700BF20
:1004E00000000120014B1860704700BF0000012090
:1004F00030B585B004460D4610220021684603F051
:1005000011F802232A4621468DF802306846034B33
:10051000019302F08FF805B030BD00BFD904000888
:1005200080B505460E461746984601F095FEDFF861
:100530002090034602F0FEFF0446424649F8003090
:1005400039463046A84754F8090000F0D5F900BFF5
:1005500008000000034A0020536823F002035360A0
:10056000704700BF002004E0064B00201A6842F4E8
:1005700000721A601A6842F480721A60024B034AD1
:100580001A607047003C0240280001200024F4005B
:10059000014B036001207047243A000808B5034B63
:1005A0001B689847BDE8084000F026B80400012009
:1005B00030BFFFF7FDBF00BF2DE9F0410B4E0546F0
:1005C000DFF82C80324606EB0807CC1B0949204691
:1005D00002F09AFFA019083C4246002102F0A2FF57
:1005E00007F108002C67BDE8F08100BF00000000A3
:1005F000040000001C3A0008074A936893F90E10A3
:10060000002907DB5269934204D0044A536843F03F
:1006100080535360704700BF4803012000ED00E0A5
:10062000264B70B515469A6A064612F0100F9A6A64
:1006300014BF1124102412F0080F9A6A18BF122454
:1006400092070AD5586B9A6A140634D519B19A6A7A
:1006500022F080029A62132401E06FF01500174B1C
:100660009A6A12F0010F9A6A18BF142412F0200F30
:100670009A6A18BF1524D20602D49B6A9B070AD532
:100680000E4B5B68190506D5314600F00FFA10B124
:1006900080F309880224094B9A6A920603D55A6AA4
:1006A00022F400525A629A6A204642F0FF029A628D
:1006B00000232B7070BD6FF01500CCE700ED00E05B
:1006C000134B9A6A12F0007F9A6A14BF1E201D20F5
:1006D00012F0807F9A6A18BF1F2012F4002F9A6AC6
:1006E00018BF212012F4802F9A6A18BF222012F41A
:1006F000003F9A6A18BF232012F4803F9A6A6FEA7B
:10070000024218BF24206FEA12429A62704700BF6B
:1007100000ED00E0194B024610B5986A9C6A10F48F
:10072000805F14BF1720162014F4006F9C6A18BF56
:100730001820A40509D5986B986A000404D51AB14D
:100740009A6A22F400429A6219200C4B9A6A12F4B7
:10075000806F9A6A18BF1A20D2050CD49B6A13F4D2
:10076000005F18BF1C20054A936A43F47F439362DD
:1007700000230B7010BD1B20F5E700BF00ED00E06B
:10078000484BF0B55B688BB004460025C3F3080303
:1007900085F31188BFF36F8F02F07F40B0F17F4F78
:1007A00011D102F00C0008280DD010074CBF0C46E8
:1007B00001250022033B8DF80720032B05D8DFE835
:1007C00003F0256468612C46F3E700239DF80720B9
:1007D000D2B902AE04F120072068083454F8041C92
:1007E0003246BC4203C21646F6D1099A002D54D0B7
:1007F000C2F3080121B96FEA52226FEA422209923C
:1008000002A9184602F0ECF90BB0F0BD254BDA6AEC
:100810009107DAD4DA6A002AD7DBDA6A5200D4D533
:100820005A69A16942F480725A61BFF34F8FBFF3D6
:100830006F8F5A6931F8021C22F480725A61BFF33B
:100840004F8FBFF36F8F4DF6027291420AD09A6AB2
:10085000D2B24AB10DF1070201212046FFF7E0FEB6
:100860000346B3E72368B1E79A6A12F47F4F05D0D5
:100870000DF107010120FFF74DFFF1E79B6AB3F58A
:10088000803FA2D3FFF71CFFEAE70DF1070200212A
:10089000E3E70DF107010020EDE722F4FF7222F0FB
:1008A0000102ACE700ED00E0024A536943F0100397
:1008B0005361704700ED00E0EFF30880EFF309812A
:1008C00001B57246FFF75CFF01BD00BF102080F349
:1008D000118808484FF40461401880F30988EFF349
:1008E00014800221084380F31488BFF36F8F00F057
:1008F000A3F8000080030120084B9B6883420BD1C2
:10090000EFF3058343B1064B5A6842F080525A60B8
:100910005A6A22F400425A6202F058BD480301208C
:1009200000ED00E0094A6FF00A01936899670849F1
:1009300058674B6843F080534B60002383F3118862
:10094000BFF36F8F9368986F704700BF4803012013
:1009500000ED00E010B50446EFF31183102383F39C
:100960001288BFF36F8F0A4B4FF00062586998608E
:10097000084B5A60084B026F1A600022436F4267AF
:1009800083F31188BFF36F8F00F0F8F8204610BD95
:100990004803012000ED00E0100201200B498A68A5
:1009A0004FF030001044EFF3098C80E8F01F7446DC
:1009B0007046FFF7CFFFA64604498A6802F130006F
:1009C00090E8F01F8CF3098870470000480301206D
:1009D0001EF0040F0CBFEFF30880EFF3098081696C
:1009E00011F8021C0229FFD001B502F0FFF801BD89
:1009F00040B2002807DB0123410900F01F00024A32
:100A0000834042F82130704700E100E040B20131FC
:100A100000284FEA0111C9B206DB00F1604000F581
:100A2000614080F80013704700F00F00014B19542B
:100A3000704700BF14ED00E00F4A08B522F07F02B6
:100A40000E4B9A60BFF34F8FBFF36F8FD3F88820A0
:100A500022F47002C3F88820EFF3148323F0040318
:100A600083F31488BFF36F8F01F0CCF801F080FCA2
:100A700000F05AF801F00AF90000000800ED00E06B
:100A800042F8203C203A009B07495360019B21F02B
:100A900001019360029B9161D3604FF08073D36139
:100AA000002302654367704721050008094A034691
:100AB000906870B113F1160F006E05D0A0F14002DE
:100AC0009A4205D8834203D2814228BF0020704752
:100AD000002070474803012015460C4A0E4608B511
:100AE0000B4B9060026F1A6000F048F82C4686F3BA
:100AF00009884FF00000074B984720464FF000014F
:100B00004FF000024FF00003034C20474803012040
:100B100010020120FD2B000821050008014B1022C6
:100B20001A61704700ED00E0002304481021C2184C
:100B30000133682B82F80013F9D1704700E100E01F
:100B400008B5EFF30583064A103B02EBC30152F8E8
:100B5000330049688847BDE80840FFF74DBD00BF36
:100B6000DC360008024B0121024A034800F076B847
:100B70000000042000000120343A0008026E4021E9
:100B8000044B403A18461A60034AC3E90112012196
:100B900000F06EB81402012000000B15084AC2F8DC
:100BA00098000B6823F01F03034343F01003C2F8BF
:100BB0009C308B6843F00103C2F8A030704700BF3F
:100BC00000ED00E02DE9F0430E4685B01F460446D7
:100BD0004FF00009DFF85480B14523DA6068D8B1DE
:100BE0003FB1411E08421BD11F2819D92368194261
:100BF00016D12368019302F015F8A3680343D0B21D
:100C00000393D8F89050C5F30725013DA84207D8B3
:100C100001A9FFF7C3FF421C09F101090C34DBE70E
:100C20006FF01502104605B0BDE8F08300ED00E05E
:100C3000044B0522C3F89420BFF34F8FBFF36F8F8F
:100C4000704700BF00ED00E0BFF35F8F024B002252
:100C5000C3F89420704700BF00ED00E010B5034CCE
:100C600001232278FFF7AEFF207010BD780301202A
:100C70000B4A08B500231278FFF7A4FF10F1160FF6
:100C800007D0084A0021D2F89030C3F307239842D6
:100C900000DB08BDC2F898000130C2F8A010F2E7EE
:100CA0007803012000ED00E0544B2DE9F043544C53
:100CB00085B0D3F890302568C3F307239D4200F236
:100CC0009A8000200C26FFF7BFFF85421AD14D4CB9
:100CD00068464D4F2570FFF75BFC00250646DFF8A0
:100CE0001C81DFF82891AE4213D1237800204349BC
:100CF000D1F89020C2F30722934276DB0020FFF761
:100D000097FF42E0616806FB0011FFF747FF0130E3
:100D1000DBE700984FEA051C00EB0511CB683B4070
:100D2000B3F5000F48D00AD8B3F5001F30D0B3F5A3
:100D3000800F36D0B3F5801F10D00135D3E7B3F163
:100D4000807F42D0B3F1007FF7D150F80C30886833
:100D500001F068FF4A6840F4802009E050F80C3048
:100D6000886801F05FFF40F088504A6840F4302006
:100D700003902078CDE90123D8F89030C3F30723FE
:100D8000013B98422AD96FF0150005B0BDE8F08309
:100D900050F80C30886801F045FF4A6840EA0900C5
:100DA000E6E750F80C30886801F03CFF40F0E06066
:100DB0004A6840F40030DBE750F80C30886801F0F6
:100DC00031FF4A6840F08270D2E750F80C308868F2
:100DD00001F028FF4A6840F08870C9E701A9FFF7D1
:100DE000DDFE237801332370A7E7C1F89830013383
:100DF000C1F8A0007CE74FF0FF30C6E700ED00E04F
:100E0000403A0008780301200000F0FF00000811BC
:100E100008B5024B1B689847002008BD200201203E
:100E2000034B044A1860937843F0020393707047B1
:100E300020020120080001200649074821F007018F
:100E4000C1F1005208B502F5802201F07CFE0020BD
:100E500008BD00BF87110120240201202DE9F041C7
:100E6000054600244FF001080D4E0E4F2B7853FA23
:100E700084F01F280DDC08FA00F3726933EA0202DD
:100E800007D1736157F830301BB107EBC0025168CE
:100E9000984701346A78E3B29A42E7D2BDE8F0811C
:100EA000003C014030020120044B18440023013370
:100EB00000F8012B9942FADC704700BF3400012092
:100EC000064B0246064910B4185601230C6893409D
:100ED00023430B6010BCFFF78BBD00BF3400012023
:100EE000003C01401F2806DC034901220B688240B8
:100EF00023EA02030B607047003C014003292AD813
:100F0000DFE801F0020E141F134B012299688240A2
:100F100021EA02019960D96821EA0202DA60704789
:100F200001220D4B824099681143F3E70A4B0122DD
:100F3000D96882401143D960996821EA02029A6017
:100F40007047012303FA00F0034B9A6802439A604A
:100F5000DA681043D8607047003C01400A4B30B556
:100F600053F830408C4204D103EBC0056D689542C4
:100F700005D034B943F8301003EBC0035A600020A9
:100F800030BD6FF00F00FBE730020120034B002261
:100F900043F8302003EBC0035A6070473002012051
:100FA0001E4B10B5186814460B68082B13D0062B7F
:100FB00008D883B1023B042B15D8DFE803F01313E4
:100FC00013192300402B11D008D8342B0BD0382B09
:100FD00009D0302B07D06FF0850006E0442B0FD0EE
:100FE000A82BF7E700202060002010BD8008FAE75A
:100FF00000F09EF81923B0FBF3F04FF4D873584378
:101000004008F0E700F094F81923B0FBF3F04FF438
:10101000D87358430923B0FBF3F0E4E7280001201C
:1010200070B53F4D00F0AEF83E4C284601F0D0FEC2
:1010300000F0BAFCA3683C4AC3F30313D35C20FA64
:1010400003F613781D41AE4202D2284600F0DAFCC6
:10105000236823F480232360236843F480332360D0
:10106000304B1A689403FCD59A6802F00C02082AE7
:1010700017D11A68900707D41A6842F001021A6063
:10108000284A13689907FCD5264B9A6822F0030278
:101090009A609A6812F00C0FFBD19A6822F0F00265
:1010A0009A60204C236823F080732360636823F4E4
:1010B00040336360636823F0706343F010636360E0
:1010C00000F03AF8236843F08073236023689B01A3
:1010D000FCD5A36823F0F003A360A36823F0030307
:1010E00043F00203A3600F4CA36803F00C03082B2A
:1010F000FAD1AE4202D3284600F084FC0B4B00200C
:10110000074A1A60A36823F4E05343F4A053A36092
:10111000A36823F4604343F40043A36070BD00BFA1
:1011200000E6DF0C00380240793D0008280001206D
:101130000048704740787D010E4B0F495A681140B6
:101140000E4A0A435A601A6842F080721A60A3F588
:10115000E4331A6842F480321A605A68D203FCD52C
:101160001A6842F400321A60054A53689B03FCD5A2
:10117000704700BF003802400080BCFF196C40007F
:1011800000700040064B82B01A6C42F080521A6424
:101190001B6C03F080530193019B02B0704700BFAA
:1011A0000038024008B5074802F071F838B1064827
:1011B000FFF736FE0448FFF795F9002008BD6FF0F1
:1011C0001200FBE7C8360008CD1100080A2838B520
:1011D0000446074D04D1AB680D2128465B6898474B
:1011E000AB68E1B202485B689847204638BD00BF53
:1011F000C836000838B5036904465860084D2846CB
:1012000002F045F840B161682846AB680C311B68B4
:10121000984700EAE07038BD6FF01200FBE700BFAE
:10122000D8350008F7B50C4611461D464768B1F59C
:10123000001F026924D104F003020F23374904324E
:101240009200934043EA9403DAB2023251F822202A
:10125000190C02EA134391FAA1F2B2FA82F2D340D6
:10126000BA689A4209D12046FFF73CFE2046FFF7B4
:101270008DFE00212046FFF741FE002003B0F0BDA7
:10128000B1F5800F41D026492046FFF767FE0028C0
:101290003ED1B5F1806F34D0B5F1C06F33D0B5F128
:1012A000007F38D102261F4A6B46BD6892E80300D2
:1012B00083E803001C481946826812689047C0B949
:1012C00004F003030F2204339B009A4042EA940285
:1012D000D3B2110C9B0003F1804303F59C33986853
:1012E00020EA124091FAA1F2B2FA82F29540054347
:1012F0009D6020463146FFF701FE2046FFF7E0FDE6
:10130000BBE70126CFE70326CDE76FF08500B5E701
:101310006FF00F00B2E76FF01500AFE70038014043
:10132000F32F00081C3A0008D83500082DE9F047D3
:10133000044600EBC10600251C4FB44201D1002039
:1013400014E02068C30600F01F0911D4656845F059
:101350002005C0F3481AC0F344200F2823D857F8BB
:101360002080B8F1000F0DD16FF01200BDE8F087BA
:10137000B9F1100F04D0B9F1110FEAD16568E8E7AF
:101380003025E6E7404601F082FF0028ECD04B46CE
:101390002A460AF00F01404601F042FE002804F1FF
:1013A0000804CADAE2E76FF01500DFE7543B0008F3
:1013B000F8B50C46036941685D682379012B15D0A7
:1013C0009F1E7E427E41B6026279022A96BF444F3A
:1013D0004FF4005737F81270A279022A09D0042A74
:1013E0002FD0003B18BF01231B0306E04FF4C0665B
:1013F000EAE7B3FA83F35B091B07E2790968012A7C
:1014000014BF4FF0000C4FF4407CA5421CD10A6879
:1014100022F0805222F4B05232431A430A604B68E1
:1014200023F440533B434B6043681A68936823F4AA
:10143000407343EA0C0393602968BDE8F84001F06B
:1014400053BE4FF48053D8E7D1F800E00EF4C06EDD
:10145000764506D0D1F800E02EF4C06E4EEA0606BE
:101460000E6041680E68716801F440518F4204D0EB
:10147000716821F440513943716041680E683168E8
:1014800001F010218B4204D0316821F010210B4370
:101490003360436819688B6803F440739C4505D03A
:1014A0008B6823F4407343EA0C038B6043681B682A
:1014B0009968490405D5032A09D09A6822F4804224
:1014C00004E0032A03D19A6842F480429A602168BA
:1014D0002B68994203D001F007FE23682B60F8BD0A
:1014E000203C0008F7B50646446805695048286066
:1014F00001F0CDFE002800F094802868E168836840
:101500001B6898470028C0F28E8001AA0021206A3B
:1015100001F09EFD0028C0F28680019B002219790F
:101520001868FFF703FF00287DDB756833692C68B6
:101530005F68236823F001032360686801F0A7FE59
:1015400000286ED0D5E901018368DB6803B19847B4
:1015500054E8003F43F00C0344E80032002AF7D17E
:1015600039463046FFF724FF2B7D1BB1A36843F0BB
:101570000803A3606B7D1BB1636843F400436360A1
:10158000AB7D1BB1636843F480336360EB7D1BB1BB
:10159000636843F4003363602B7E002B38D0254B07
:1015A0009C421BD0A3F54C439C4217D003F58063AB
:1015B0009C4213D003F580639C420FD003F58063F7
:1015C0009C420BD003F544439C4207D0A3F51C4337
:1015D0009C4203D003F580639C4226D173681A684D
:1015E000936843F48043936023686A7E23F07873A2
:1015F00043EA425323602368AA7E23F4F81343EAA4
:1016000002432360EB7E1BB1A36843F40043A36055
:10161000236843F001032360E3699B02FCD50020AB
:1016200001E06FF0120003B0F0BD6FF01500FAE7B3
:10163000D835000800100140F8B5436802460E4650
:1016400091F805E01C68036908795D6801288B79C9
:101650001ED1BEF1020F72D9022B1F464FF4C0619A
:101660004FF4005C00F08380042B7BD020B1C31EBC
:10167000012B79D94FF48050BCF5805F00F0818058
:10168000BCF5405F7FD0BCF1000F1CD101231BE0F3
:1016900002280AD1BEF1020F5DD9022B1F464FF47A
:1016A00080610BD04FF4005CDEE7BEF1020F55D92C
:1016B000022B1F4654D100285FD00021C31E012BEE
:1016C00052D900200227032373454DD101F027FD95
:1016D000B84249D1F37903B3012B56D12C4B9C422C
:1016E0001BD0A3F54C439C4217D003F580639C426A
:1016F00013D003F580639C420FD003F580639C42B6
:101700000BD003F544439C4207D0A3F51C439C42F5
:1017100003D003F580639C4226D1236831461046EE
:1017200023F001032360FFF743FE236843F0010326
:10173000236096E8030085E803000020F8BD4FF41D
:10174000C061144F022B37F81EC01F468CD170B9F0
:101750004FF0805090E74FF48061F2E70021F0E70E
:1017600000219FE7002885D06FF08500E6E7C31EC3
:10177000012BF9D9022700207EE701464FF0805067
:10178000A1E70023A0E702239EE7032BA6D0EBE707
:1017900000100140203C00084FF0E0230F4910B535
:1017A0009C691A6908689B6902F480320C4934B953
:1017B00093B903464AB90A681044C01A10BD002BF9
:1017C00008BF03460AB9A342F5D90A6802440A6071
:1017D0004FF0E0221269EEE70446F3E744030120EC
:1017E000400301200A4B1022002083F8232045F2F9
:1017F0006042084B1A6045F25F42074B18604FF099
:10180000E0235A6198611A6942F007021A61704731
:1018100000ED00E0440301204003012010B5FFF774
:10182000BBFF1049104B0868D3E90042001942F190
:101830000002C3E900020D4A00230B6045F2604339
:10184000D2E90041001BB0FBF3F043431B1941F107
:101850000001C2E9003100F065FEBDE81040FEF76E
:10186000CBBE00BF400301206800012060000120C2
:101870002DE9F041DFF8E08099B1421C0BD14FF027
:10188000E022136923F0010313614FF07F43C8F88E
:101890000030BDE8F081D8F80060012807DC00279F
:1018A0000BE0431CD8F80060F7D140F20730B0F5E8
:1018B000427FA8BF4FF44270471EEFF311851023FB
:1018C00083F31288BFF36F8FFFF766FF234C4FF04F
:1018D000E0239969D4E9002380184FF0000243F116
:1018E0000003C4E900031E4B1A601E4B1A68831ADA
:1018F0002ED445F2604C0CFB073303F5A8435F334D
:10190000B3FBFCF7131A40F246520CFB0733934229
:1019100038BF1346144A934228BF1346C8F8003014
:101920004FF0E022013B90695361002381429361B3
:10193000A1EB0003D4E9001238BF9B195B1842F1F8
:101940000002C4E9003285F31188BFF36F8FA0E76E
:1019500040F24653E2E700BF440301206800012043
:101960004003012060000120A06EFF0038B5EFF3B6
:101970001185102383F31288BFF36F8F084B1C6807
:10198000084B1B68E41AFFF707FF85F31188BFF3C4
:101990006F8F45F260432044B0FBF3F038BD00BFC9
:1019A0006800012060000120134908B58B6803F02E
:1019B0000C03042B1BD0082B1BD14A684B684968C9
:1019C00002F03F0213F48003C1F388111ABF0B48E1
:1019D00000230B48A1FB0001FEF702FC064B5B68ED
:1019E000C3F3014301335B00B0FBF3F008BD0348D0
:1019F000FCE70348FAE700BF0038024040787D0169
:101A00000024F40000285DD02F4B1A681B6802F4F4
:101A10004042B2F5404F33D113F4803310D102F17C
:101A20000F6202F58C52904248D8284A904247D81B
:101A3000274A904235D8274A904209D902230DE01F
:101A4000254B984238D8234B98424FF0060305D8CF
:101A5000224A904202D9012B38BF012320490A684B
:101A600022F00F021A430A600A6802F00F02934242
:101A700002D00A6802F00F02981A18BF01207047BE
:101A800003F44043B3F5004F05D103F10F6303F5B1
:101A9000A343984212D80D4B984211D80C4B984250
:101AA00001D90323DAE70B4B9842C7D80B4B984276
:101AB00094BF00230123D1E70723CFE70523CDE718
:101AC0000423CBE70120704700700040000E270779
:101AD000804A5D05008793038058840C80C3C90148
:101AE000003C024038B5EFF31185102383F31288D0
:101AF000BFF36F8F064B9C6801F0DCFB85F3118808
:101B0000BFF36F8F2046BDE83840FEF7F5BE00BF3B
:101B10004803012038B5094B53F82040013053F8F1
:101B20002050A54200D838BD636823B1204601F09B
:101B3000C4FB0834F5E723689847FAE7083C000837
:101B40002B4B0122032070B52A4C86B02A4D1A7007
:101B5000FFF7E0FF00F068FD01F0CBFB0420FFF78A
:101B6000D9FF26463034AE4210D3224C00F09AFA08
:101B7000224EAC4226D300F0A9FAFEF79BFC204A85
:101B8000137B23F00103137306B070BD54F80C3CB3
:101B9000059354F8103C049354F8143C039354F800
:101BA000183C029354F81C3C019354F8203C0093D9
:101BB00054E90A2354E90C0100F0D0F854F8303C01
:101BC0005E65CEE7D4E90A23B3F1FF3F08BFB2F167
:101BD000FF3F05D052EA0301206803D101F095FBD5
:101BE0003034C6E73146183000F022FCF8E700BF79
:101BF000790301201C3A00081C3A0008C53300088C
:101C0000F000012003480021034A08B5121A01F030
:101C10006CFB08BD600001207C03012070B500232F
:101C200086B00122144E01930446144D06EBC016F3
:101C30001349CDE904230F22CDE9023214234FF4D6
:101C4000A07203FB00554FF4C0700E4B00FB041153
:101C50003046009500F082F8737B0B4A23F00403B2
:101C6000EE602C7473734FF4046304FB033313446A
:101C70006B6006B070BD00BF7000012048030120FA
:101C8000C00B0120F532000880030120BFB5002001
:101C9000FFF740FF294B83F30888294D0024F023E8
:101CA000284E294F85F82230EC772C766C76AC766E
:101CB00085F820406B6A43F4E0236B62FEF7F4FD85
:101CC000FEF72CFF4FF0FF33AB62EB62FEF7ECFF49
:101CD0001E4DFEF747FF1E4B40F20112B3609A8182
:101CE000DC66C3E9184401F0D1FA0120FFF712FFC6
:101CF0000220FFF70FFF00F009FA164B75614FF451
:101D0000806205930123144928460094CDE90343DA
:101D1000CDE901443B4600F021F86A7B064628469F
:101D200022F004026A7301F004FB2046FFF776FFFD
:101D30003A4631462846FEF7CFFE00BFC00B0120D1
:101D400000ED00E048030120411B0008F0000120E5
:101D500070010120893D0008400D012007322DE966
:101D6000F04322F0070285B00E461F46109900F19D
:101D700058037F3204460173042122F03F0206F12A
:101D8000400941733F2AA2F14008C0E916334FF0E1
:101D9000000383600F98E373A073C4E9063305D88A
:101DA00083F31188BFF36F8F084602DFB518204612
:101DB0002946FEF701FC07300E9B314620F0070054
:101DC000C4E91898A0662D1A029320460D9B2A4656
:101DD00001930C9B00933B46FEF752FE0023636584
:101DE000044B9B6803B1DB6E2846E36605B0BDE893
:101DF000F08300BF4803012038B50D4D2B4653F842
:101E0000184F9C4200D004B9EC68AB6838B95A7BD3
:101E1000D20604D1A26912B9DA897F2A05D89C4278
:101E200002D0204600F04CFA23466B6138BD00BF5B
:101E30004803012008B590F90D200146437B002A94
:101E400004DA03F07F03437301F061FA044B9868EE
:101E5000431A58425841BDE80840FFF7CDBF00BFC4
:101E60004803012070B490F90D30427B002B29DB30
:101E7000D30627D183692BBB62F07F0212494273DC
:101E80000A4652F8184F944218BF2346CC6923B92A
:101E9000C0E900242060C8610CE090F90E5093F96D
:101EA0000E60B5420AD0AE4208DD5A68C0E9003281
:101EB00010605860002070BCFFF79EBF9C42E7D0C6
:101EC0001B68E4E770BC704748030120002A2DE935
:101ED000F0410E46427B0CBF1021082104461142FE
:101EE0000FD141EA0203D20918D1437308291BD04C
:101EF0000120FFF781FFBFF35F8F637B23F0600357
:101F00006373274B9B68A34243D1EFF30583002BF8
:101F10003FD13046BDE8F041FEF704BD03F07F033A
:101F2000437301F0F4F9E1E7A36813B1204601F02F
:101F3000F6F904F1180004F1580701F069FAA56DEB
:101F4000AF4211D04FF0000875B1284601F0E7F913
:101F500005F1180001F05CFA2846C5F87880FFF713
:101F600081FFA56DAF42EFD10D4DAB689C42BFD153
:101F7000EFF30583002BBBD00120FFF73DFF094B9A
:101F800040F20112AB609A810022C3E91822DA669E
:101F9000B1E786F31188BFF36F8FBDE8F08100BF12
:101FA000480301207001012070B590F90D20014611
:101FB000437B002A04DA03F07F03437301F0A7F99F
:101FC0004B7B154A63F07F0310464B7350F8183F64
:101FD000D469834208BF002323B9C1E9000421600A
:101FE000D1610CE091F90E5093F90E60B5420ED01C
:101FF000AE420CDD5868C1E900300160596090685C
:10200000431A5842BDE870405841FFF7F5BE9C4264
:10201000E3D01B68E0E700BF4803012049B9EFF3B4
:10202000058030B9054B5A699B689A4201D0FEF78A
:1020300079BC81F31188BFF36F8F7047480301208B
:1020400010B5EFF31184102282F31288BFF36F8F63
:10205000427B510704D484F31188BFF36F8F10BD06
:1020600022F004024273FFF7FDFE21460248BDE85C
:102070001040FFF7D3BF00BF7A030120034648B9E1
:10208000EFF3058232B9064A51699268914201D054
:10209000FEF748BC83F31188BFF36F8F704700BF12
:1020A00048030120EFF31181102383F31288BFF35B
:1020B0006F8F054B9A68D37B013BD37381F31188F3
:1020C000BFF36F8F704700BF4803012038B5EFF3AF
:1020D0001185102484F31288BFF36F8F0A4B002000
:1020E0009A68D37B0133D373FFF786FE85F311889B
:1020F000BFF36F8FEFF3118084F31288BFF36F8FFC
:10210000BDE83840FFF7BABF48030120024B03F196
:102110001802C3E90622704748030120F8B5EFF31F
:102120001185102383F31288BFF36F8F19498868D4
:10213000437B03F07F03437301F0E9F88B680846A3
:102140005A7B62F07F025A7350F8182FCC69824292
:1021500008BF002222B9C3E900042360CB610CE070
:1021600093F90E6092F90E70BE420ED0B7420CDDAC
:102170005168C3E900210B6053600120FFF73CFE6A
:102180002846BDE8F840FEF7CDBBA242E3D0126876
:10219000E0E700BF4803012050EA01032DE9F041C8
:1021A00005460E4603D1FFF7B9FF00202BE0831C44
:1021B00071F1FF3329DB01F040F92C18EFF311889E
:1021C000102383F31288BFF36F8F124F124BB8683E
:1021D0001860FFF72FFEB8682A46104933461830BA
:1021E00000F026F9BA684046537B43F0100353735E
:1021F000FEF798FB01F021F9201A63EB0303012895
:1022000073F10003D1DBBDE8F0816FF00104241A03
:10221000D4E700BF4803012068030120C53300084C
:10222000B1F1FF3F08BFB0F1FF3F08B506D1094B40
:10223000986801F08DF84FF0FF3008BDFFF7ACFF54
:102240000A22C11709304FF0000341F10001FDF7E8
:10225000C7FFF2E748030120014B9868704700BFB1
:1022600048030120044B0122C01A044BC0105843FC
:10227000034B1A54704700BFF0010120ABAAAAAA71
:102280007A030120C3897F2B12D80A4B1B6863B1E4
:10229000094B90F90E201B689A4209DB437BDB0651
:1022A00006D1064BC31A18BF012303F00100704783
:1022B0000023FAE7700301206C0301207000012065
:1022C0000E4B70B51E7C05460D4C06EB460304EB29
:1022D000C304204601F09CF80A4B002228469A5578
:1022E000FFF7D0FF48B1084B204608491A68013A69
:1022F000BDE87040D31700F09BB870BD48030120C3
:10230000F00101207A0301207003012065220008FA
:1023100038B5EFF31185102383F31288BFF36F8F65
:10232000104B114A9C681068A04206D1FFF7C8FF05
:1023300085F31188BFF36F8F38BD00211B7C1160BE
:102340000A4AD35C002BF3D02046FFF79BFF0028FE
:10235000EED0637BDB0602D12046FFF725FE204648
:10236000E4E700BF48030120680301207A0301204D
:102370000648074A0749121A08B500F0B8FF064A8E
:1023800006490748BDE8084000F0B1BF0000012041
:102390005E000120C83D000800000000C83D0008A4
:1023A00000000120034B1B680BB9FFF7DFBA0020C8
:1023B000704700BF7403012030B570B10B4B5B68F0
:1023C00098420AD0036843B1D3E90421D0E9044517
:1023D000121941EB0501C3E90421D0E90032136071
:1023E0005A600023C0E9003330BD00BF2C0001203B
:1023F0000E4B10B51C689C4204D1FFF7D3FF6FF061
:10240000004010BDFFF7CEFF002CF8D0D4E9043215
:102410001B1A62EBE072B3F1004F72F10001EEDAC9
:10242000002AACBF18460020EBE700BF2C000120BB
:10243000B3F1FF3F08BFB2F1FF3FF8B504461D46B8
:1024400016465ED08160EFF31187102383F3128864
:10245000BFF36F8F013275F1FF3324DA2E496FF02D
:102460000103D1E900209B1A4FF0FF3262EB00001C
:102470009E1B60EB0500012E70F1000301DA0126BE
:102480000020C4E90460254ED6F800C07568B44544
:1024900008BF4FF0000CBCF1000F0DD1C4E900657E
:1024A0002C6074601CE0FFF77DFF013645F10005EC
:1024B000361845EBE070E4E7DCE90420D4E90431A8
:1024C000934271EB000E1DDAD21ADCF8043060EB97
:1024D0000100CCE90420C4E900C31C60CCF804402E
:1024E0003368B34209D09C4207D10D4B1C6824B914
:1024F000FFF77EFF2146FFF7BBF987F31188BFF393
:102500006F8FF8BD9B1A61EB0001AC45C4E9043143
:10251000C4D0DCF800C0BEE7080201202C00012076
:10252000740301202DE9F84FEFF3118C102383F38E
:102530001288BFF36F8FDFF8B4A00024DFF8B090EB
:1025400000252C4FC9F80000DAF80000504508BFFC
:102550000020D9F80030E046D7E9002178B34FEAEF
:10256000E37ED0E9046CB3427EEB0C0B05DAF61A7D
:102570006CEB0E04C0E9046421E0B21841EBE67193
:10258000C0E90445C7E90021FFF716FF88F3118869
:10259000BFF36F8F83689847EFF31188102383F39D
:1025A0001288BFF36F8FD9F80030C446DAF8000004
:1025B0009B1B5045C9F80030CBD1D7E900219A18B0
:1025C0004FF0000441EBE373C9F80040C7E9002372
:1025D000FFF70EFF2146FFF74BF988F31188BFF391
:1025E0006F8FBDE8F84FFFF793BE00BF2C000120AE
:1025F000740301200802012010B5EFF311841023A9
:1026000083F31288BFF36F8FFFF7CCFE054A0346B2
:10261000D2E90001181841EBE37184F31188BFF38C
:102620006F8F10BD08020120014800F0CBBA00BF37
:102630008E3D00082DE9F04F8DB0436802938378FA
:1026400015469A07804640F10D8100240E78002E31
:1026500000F00A81252E0BD04B1C03930134029B02
:102660004146304698470028C0F2F6800399EDE7CE
:102670004E788B1C252E0393F0D00027B946BB461D
:10268000BBF11F0F38D8A6F12003102B0AD8DFE8C2
:1026900003F02A0909300909092109090928092D26
:1026A00009091F00A6F13003092B33D92A2E37D18F
:1026B0001BF0400F55F8043B40F08280002BA7BF71
:1026C0004BF0200B9946C3F100094BF0280B01E0B9
:1026D0004BF0010B039B13F8016B0393002ECFD13A
:1026E00030E04BF0020B4BF0040BF3E74BF0080B20
:1026F000F0E74BF0100BEDE7BBF17F0F19D8A6F117
:102700003003092BD2D81BF0400F03D00A2101FB64
:102710000737DFE70A2101FB09394BF0200BD9E726
:102720002E2E06D11BF0400F40F09E804BF0400B48
:10273000D0E76C2E31D02BD8682E36D06A2E3CD004
:102740004C2E3AD0002F46F02003B8BF2BF04002A9
:10275000A3F16501BCBF1FFA82FB0027022901D942
:10276000612B2FD1073525F00705DFF8ACA208351E
:1027700007271BF0080F66D00AEB070B56465E458D
:1027800063D1A4EB0A0A06EB0A02A9EB07096FE181
:10279000742E9FD07A2E9DD0D4E71BF0800F18BFE7
:1027A0004BF4007B4BF0800B94E71BF4807F18BF49
:1027B0004BF4007B4BF4807B8CE74BF4207B89E768
:1027C0001F4687E7A6F16301122900F2F080DFE8D7
:1027D00011F013004F00EE00EE00EE00EE004F008F
:1027E000EE00EE00EE00EE00EE00FE00E900EE006E
:1027F000EE001B00EE00AF0055F8043B8DF81830DA
:1028000001270DF1180AB4E755F804AB834BBAF170
:10281000000F08BF9A461BF0400F14BF39464FF017
:10282000FF31504600F00DFE0746A2E7029B4146ED
:102830002020984700280FDB013EB742F6D34C44D6
:10284000A41BB14698E74E46F7E716F8010B029B2A
:1028500041469847002892DA98F8023043F0040382
:1028600088F802304FF0FF3420460DB0BDE8F08FFD
:102870001BF0800F34D01BF4007F2CD0073525F0DF
:102880000705AA4669685AF8080B2BF010050029BD
:10289000ADB237DA404261EB410145F480650DF19C
:1028A000180B0A235A4600F0D8FDA0EB0B03019346
:1028B0006B0662D5019B25F001019F4289B240F36E
:1028C000A180002E00F0998015F0100240F09C804D
:1028D000BB460D4623E0AA465AF8040BC117D4E7BD
:1028E000AA461BF4807F5AF8041B01D10846F5E77D
:1028F0001BF4007F15BF48B208B241F3C01141F389
:10290000C031C2E750EA0103C9D11BF0400FC6D065
:10291000002FC4D12BF0110295B2BB46019740F2B3
:10292000064115EA01021CBF0BF1010B00222CE04D
:102930002BF010021FFA82FB0A231BF0800C49D0F7
:102940001BF400711DBF073525F00705AA46AA46EE
:102950001ABF5AF8080B69685AF8040B50EA0105C7
:1029600045D12BF016051BF0400FADB242D0002F21
:1029700040D12BF0170295B2019715F0100248D004
:10298000019B002E42D103F1010B29075AD4EB071A
:1029900006D5D9456FDD0199A9EB0B035F18CB462E
:1029A0005B4649E04BF0100B10237826C5E7782BE7
:1029B00004D1C6F1780343F01003BEE7029B414601
:1029C000252098470028FFF647AF023447E6082342
:1029D0000026B2E7AA461BF480715AF8040BBDD05A
:1029E0001BF400711ABFC0B2614680B2B6E72BF08B
:1029F000060295B20DF1180B54E725F01105ADB2A2
:102A0000BB468CE70D46B8E73B460D4603F1020B8B
:102A1000BBE7DDF804B082E7BD3D0008B63D000825
:102A2000CDE904324146029B202098470028FFF65A
:102A300013AF049B059A01339945F1DCA4EB0B011C
:102A4000CC189B460AB3029B414630209847002889
:102A5000FFF602AF8EB901342744019B391B99421E
:102A600024DC1D465DBB019AA9EB0B0922445546A7
:102A70001446914435E0019F92E7023441463046C6
:102A8000029B98470028E7DAE6E640F206410D424D
:102A9000E2D015F0020F14BF2B20202015F4806F18
:102AA00004F10104414618BF2D20E9E7029B41468D
:102AB00030209847002804F10104CEDACCE606ABBA
:102AC000013D4146585D029B98470028CADAC3E69B
:102AD000029B414620209847002804F10104FFF69C
:102AE000BBAEA9EB0403002BF2DCBFE5704700EBA3
:102AF000C100408840087047F8B50346FFF7F7FF6C
:102B0000B0FA80F0CA000C468DB2C0F11F00171D4C
:102B1000063203EB800CDCF8106056B9012101FA93
:102B200000F0D9680143D960CCF81040DD539D52C4
:102B3000F8BDF1000431585AD85303EBC0009E523F
:102B4000C5805D52F4E7043A2DE9F041CC1D1144F3
:102B50004FF0000824F0070421F007010E1B046069
:102B6000414604F11000F708C4F80C80B7FA87F268
:102B7000A760C2F12405C2F12002AD009200073522
:102B800000F0D0FCA4F800802046ED086B0004EBB8
:102B9000C50243F0010363807B1B59005180A219D9
:102BA00024F835502946A2F80280A35304EBC7034A
:102BB0005A8842F001025A80BDE8F041FFF79CBFFD
:102BC000002070470FB407B504A951F8040B019118
:102BD000FDF78EFC03B05DF804EB04B0704770475E
:102BE000012801D1EFF30583FEF77CBF01460068A1
:102BF000FFF7F6BF00210120FFF7F2BF61B662B612
:102C000080F31188BFF36F8F704772B6002383F390
:102C10001188BFF36F8FBFF34F8F30BF62B6BFF322
:102C20006F8F7047202809D9B0F1004F08D80138BC
:102C3000B0FA80F0C0F11F004000704708207047D4
:102C40003E20704708B5FEF7E3F8002008BD08B540
:102C5000062201210020FEF727F900220620114656
:102C6000FDF7D4FE012107220846FEF71DF90022D8
:102C700007201146FDF7CAFE082201210220FEF7B7
:102C800013F9002208201146FDF7C0FE0922012198
:102C90000320FEF709F9002209201146FDF7B6FED0
:102CA0000A2201210420FEF7FFF800220A20114623
:102CB000FDF7ACFE052117220846FEF7F5F80022C5
:102CC00017201146FDF7A2FE282206210A20FEF752
:102CD000EBF8002228201146FDF798FE002008BDE1
:102CE0000B6882B0A3F13002782A12D803F1804336
:102CF000486803F50E331A68024300201A600B6817
:102D000003F1804303F50E331B680193019B02B06E
:102D100070476FF08500FAE70B68A3F13002782A5C
:102D20000AD803F180434968002003F50E331A687E
:102D300022EA01021A6070476FF08500704710B5F3
:102D40000A68082A26D84FF4B173D340DB0721D58F
:102D50004A68FF2A1CD0D3B2C2F34234C2F3042221
:102D600003F1804304FA02F203F50E33186820EAF7
:102D700002021A604968CBB2C1F30242C1F30421D6
:102D800003F180438A4003F50E33186802431A604A
:102D9000002010BD6FF08500FBE70B68A3F1300247
:102DA000782A0AD803F1804303F50E331A684B687A
:102DB000934314BF012002207047082B9FBF4FF49C
:102DC000B170D84000F00100013088BF0120704789
:102DD0007047436800205B681B690B60704743685D
:102DE0005B68586942400A40424000205A6170477F
:102DF000436800205B6899617047436809040020BC
:102E00005B6899617047436800205A6853694B407A
:102E10005361704710B503699868F8B1884219D1B9
:102E2000DC680868A142986000D1D8600020086082
:102E30002AB19A680A60DA68996002B9D9600020FC
:102E400010E0814206D108682060D8688142EDD147
:102E5000DC60EBE7044600680028F2D1002AE8D1E4
:102E60006FF0150010BDF0B5446801201E46C2F396
:102E70008013676888408B404FF0030E27EA0007F5
:102E800002F030053B43202D90FAA0F7B7FA87F700
:102E90006360D4F808C0C2F3C1134FEA4707C2F316
:102EA00041220EFA07F72CEA070C90FAA0F7B7FABE
:102EB00087F74FEA470703FA07F343EA0C03A360D7
:102EC00090FAA0F3B3FA83F3E7684FEA43030EFAEC
:102ED00003F327EA030790FAA0F3B3FA83F34FEA68
:102EE000430302FA03F242EA0702E26016D107291D
:102EF0002BDC226A90FAA0F32BB3B3FA83F39B0086
:102F00000F2101FA03F322EA030290FAA0F3B3FAC5
:102F100083F39B0006FA03F31343236290FAA0F3B2
:102F2000B3FA83F3032190FAA0F05B00B0FA80F0CB
:102F300022682D0901FA03F3400022EA03038540C9
:102F40001D432560F0BD2B46D9E7030A616A93FA59
:102F5000A3F282B1B2FA82F292000F2793FAA3F39E
:102F6000B3FA83F307FA02F29B0021EA02029E40C1
:102F700016436662D2E72A46EEE738B50446900368
:102F80000D46134617D591070ED55A072ED5502258
:102F9000D8060BD542F4007219031AD561680123D3
:102FA0004968AB408B610DE01022F1E79906F3D53B
:102FB00042F48062F0E7DA0313D5D80613D4C3F3E2
:102FC00040139A02606800232946FFF74CFF002057
:102FD00038BD5B03F6D501212046A940FFF70DFF60
:102FE000F0E73022EEE74FF40072EBE76FF0850078
:102FF000EEE70B4670B5896821B101255E680C6863
:10300000854001B970BD8A682A4002D04B683046BD
:1030100098471CB1236821461C46F2E72346FAE78D
:10302000F8B51F46044640680E461546FFF71BFFDD
:10303000112F07D101212B0501FA06F104D5636890
:103040005B6899610020F8BD2046FFF7D6FEF9E7DE
:1030500030B5036813600579046804EBC504A34226
:1030600002D36FF0010030BD5C798C4201D008338F
:10307000F0E70020F7E74368C1F34B1001F01F01B0
:103080001B68C05801238B4003424FF0000014BF5F
:10309000012300231370704710B54368C1F34B1030
:1030A00001F01F011A68012384588B402343835089
:1030B000002010BD10B54368C1F34B14012201F08C
:1030C0001F0118688A40235823EA02032350002076
:1030D00010BD38B504460D46FFF7DEFF29462046F1
:1030E000FFF7E8FF002038BD37B502690C4643689A
:1030F00010681D68D9688368DB6873B101AA9847B6
:1031000000280ADB2B6823F400432B60019B03EBB0
:103110005403B3FBF4F39BB2EB6003B030BDB0F5E6
:10312000805F07D0B0F1805F09D1002914BF012072
:1031300002207047002914BF032004207047002993
:1031400014BF02200320704743681B68D869DA69FE
:10315000C0F3C000D107DA6948BF40F0020092070F
:10316000DA6948BF40F004005107DA6948BF40F00F
:103170002000D20504D54FF4807240F008001A6296
:10318000C10701D508221A62820701D501221A62FD
:10319000410701D502221A62820601D504221A6271
:1031A000704710B5436810201B68DA691206FCD519
:1031B000EFF3118280F31288BFF36F8FDC6924066E
:1031C00004D482F31188BFF36F8FEEE7996282F324
:1031D0001188BFF36F8F10BD43681B68DA69100751
:1031E00001D508221A62DA69920603D55B6A0020CB
:1031F0000B7070474FF0FF30704710B502690446FE
:103200000B46526812680A6042681268126802F43B
:10321000C062B2F5806F33D0A2F5C0604242424135
:103220001A7162681268526802F44052B2F5805F07
:1032300028D0B2F5405F27D0002A0CBF012203221C
:103240005A71626812681068116800F0102001F469
:10325000C061FFF764FF987162680020126892688D
:1032600002F44072A2F540714A424A41DA71616843
:103270000968896811F4804F18BF0322DA7110BD04
:103280000222CDE70022DBE70222D9E7704740B1F6
:10329000C368587810F001001EBF1878B0FA80F0AB
:1032A00040097047EFF31183102383F31288BFF3B3
:1032B0006F8FFEE708B5FFF7F5FF10B5D0E90034D2
:1032C00033B90020E268537843F00103537010BD16
:1032D000204698470028F4D00028E368B8BF404251
:1032E000FF28A8BFFF201870ECE700F01BB900F022
:1032F0000BB97047102408B5EFF3118384F31288DB
:10330000BFF36F8FFFF781FCF6E7FEF799BED0E9B8
:10331000003213605A600023C0E90033704708B5DB
:10332000FFF7F5FF437B23F0020343730023836021
:1033300008BD10B5EFF31184102383F31288BFF397
:103340006F8FFEF78FFD84F31188BFF36F8F10BD71
:1033500010B50446183000F05BF8EFF3118110232C
:1033600083F31288BFF36F8F627B1A4004D081F31E
:103370001188BFF36F8F10BD2046BDE81040FEF7E7
:10338000A5BD38B50446EFF31185102383F31288E9
:10339000BFF36F8F437B13F0280F0BD183680BB102
:1033A000FFF7BDFF637B51B903F0FB032046637356
:1033B000FEF758FD85F31188BFF36F8F38BD03F01A
:1033C000EB03F3E701211838FFF7DBBFEFF31181BF
:1033D000102282F31288BFF36F8F027BD2070CD5C5
:1033E00081F31188BFF36F8F002383F31188BFF33C
:1033F0006F8F0423184602DF7047437B1B0704D5F9
:1034000081F31188BFF36F8F70470122FEF75EBD15
:1034100010B5EFF31184102282F31288BFF36F8F7F
:1034200003683BB1FEF7C8FF002084F31188BFF3A7
:103430006F8F10BD6FF01500F7E708B5FFF7DCF8E8
:1034400008BD10B5024601448A42134603D01C78D9
:103450000132002CF8D1181A10BDF0B5C3F13707AE
:103460000446FFB203F01F031046082BE6B233D028
:10347000102B3ED06508A40844EA817445EAC17562
:103480002D194FEA910242EB5102290941EA0271DA
:103490006D1842EB1212290A41EA02616D1842EBE3
:1034A0001222290C41EA02416D1842EB1242AD187A
:1034B00042F10002EC0844EA4274D10804EB8402B1
:1034C000A6EB4205EDB2092D0CD90134A5F10A0590
:1034D00041F10001EDB212E0E40844EA417406F063
:1034E0000705C908303554EA010200F8015BBCD178
:1034F000F0BD240944EA017406F00F050909092DFD
:1035000084BFED19EDB2EDE70A44914200F1FF33BB
:1035100000D1704710B511F8014B03F8014F9142EB
:10352000F9D110BD02440346934200D1704703F81D
:10353000011BF9E7014800687047000010020120F4
:08354000D4CCFF7F0100000064
:10354800690500080000000021100008D8350008AF
:10355800550500080000000000000000EC350008D8
:103568004F2C000800360008F5110008B436000892
:10357800F5110008A0360008F51100088C3600087F
:10358800F511000878360008F511000864360008BF
:10359800F511000850360008F51100083C360008FF
:1035A800F511000828360008F5110008143600083F
:1035B800E5140008C8360008A5110008000000003E
:1035C800E517000800000000390E000800000000A0
:1035D800CD3C000800000000603A000846000120C9
:1035E80000000000583D0008943B0008983B000884
:1035F8005A00012000000000AF3C00080000000055
:10360800000000004400012030020120DA3C0008DC
:103618007C3A0008303B000848000120B002012035
:10362800E83C0008903A0008303B00084A000120B6
:10363800C0020120F63C0008A43A0008303B00080C
:103648004C000120D0020120043D0008B83A0008CF
:10365800303B00084E000120E0020120123D000826
:10366800CC3A0008303B000850000120F00201204D
:10367800203D0008E03A0008303B000852000120D5
:10368800000301202E3D0008F43A0008303B0008F2
:1036980054000120100301203C3D0008083B0008AD
:1036A800303B000856000120200301204A3D000855
:1036B8001C3B0008303B0008580001203003012063
:1036C800693D0008A83B0008F43B00085C000120A5
:0436D80018000120B5
:1036DC0000000000F52B000800000000F52B00088E
:1036EC0000000000F52B000800000000F52B00087E
:1036FC0000000000F52B000800000000F52B00086E
:10370C00AD3C00085D0E0008AB3C00085D0E0008E7
:10371C00A93C00085D0E0008A73C00085D0E0008DF
:10372C00A53C00085D0E000800000000F52B000809
:10373C0000000000F52B000800000000F52B00082D
:10374C0000000000F52B000800000000F52B00081D
:10375C0000000000F52B000800000000F52B00080D
:10376C0000000000F52B000800000000F52B0008FD
:10377C0000000000F52B000800000000F52B0008ED
:10378C0000000000F52B0008A33C00085D0E0008AB
:10379C0000000000F52B000800000000F52B0008CD
:1037AC0000000000F52B000800000000F52B0008BD
:1037BC0000000000F52B000800000000F52B0008AD
:1037CC0000000000F52B000800000000F52B00089D
:1037DC0000000000F52B000800000000F52B00088D
:1037EC0000000000F52B000800000000F52B00087D
:1037FC0000000000F52B000800000000F52B00086D
:10380C0000000000F52B000800000000F52B00085C
:10381C00A13C00085D0E000800000000F52B00081C
:10382C0000000000F52B000800000000F52B00083C
:10383C0000000000F52B000800000000F52B00082C
:10384C0000000000F52B000800000000F52B00081C
:10385C0000000000F52B000800000000F52B00080C
:10386C0000000000F52B000800000000F52B0008FC
:10387C0000000000F52B000800000000F52B0008EC
:10388C0000000000F52B000800000000F52B0008DC
:10389C0000000000F52B000800000000F52B0008CC
:1038AC0000000000F52B000800000000F52B0008BC
:1038BC0000000000F52B000800000000F52B0008AC
:1038CC0000000000F52B000800000000F52B00089C
:1038DC0000000000F52B000800000000F52B00088C
:1038EC0000000000F52B000800000000F52B00087C
:1038FC0000000000F52B000800000000F52B00086C
:10390C0000000000F52B000800000000F52B00085B
:10391C0000000000F52B000800000000F52B00084B
:10392C0000000000F52B000800000000F52B00083B
:10393C0000000000F52B000800000000F52B00082B
:10394C0000000000F52B000800000000F52B00081B
:10395C0000000000F52B000800000000F52B00080B
:10396C0000000000F52B000800000000F52B0008FB
:10397C0000000000F52B000800000000F52B0008EB
:10398C0000000000F52B000800000000F52B0008DB
:10399C0000000000F52B000800000000F52B0008CB
:1039AC0000000000F52B000800000000F52B0008BB
:1039BC0000000000F52B000800000000F52B0008AB
:1039CC0000000000F52B000800000000F52B00089B
:1039DC0000000000F52B000800000000F52B00088B
:1039EC0000000000F52B000800000000F52B00087B
:1039FC0000000000F52B000800000000F52B00086B
:103A0C0000000000F52B000800000000F52B00085A
:103A1C004400000000400000763C000800000090CC
:103A2C000000001000000002000001200000000057
:103A3C0000000B0602000000483A000800000008D5
:103A4C00923C000824000207000001209A3C000868
:103A5C0022000B11E12C0008192D000800000000B9
:103A6C00A10F00089B2D0008000000003F2D00084E
:103A7C00FFFF0000002002400800000030000000A2
:103A8C0000010000FFFF0000001C024007000000C6
:103A9C003000000080000000FFFF00000018024012
:103AAC00060000003000000040000000FFFF000096
:103ABC00001402400500000030000000200000004F
:103ACC00FFFF000000100240040000003000000066
:103ADC0010000000FFFF0000000C0240030000007B
:103AEC003000000008000000FFFF0000000802404A
:103AFC00020000003000000004000000FFFF000086
:103B0C000004024001000000300000000200000030
:103B1C00FFFF000000000240000000003000000029
:103B2C00010000007B2F0008D32D0008DF2D0008BA
:103B3C00F12D0008FB2D0008072E000825120008A7
:103B4C00152E000800000000B4360008A03600084E
:103B5C008C360008783600086436000850360008A9
:103B6C003C36000828360008143600080000000017
:103B7C000000000000000000000000000000000039
:103B8C000000000000000000003802407730000800
:103B9C0099300008B5300008D330000800100140FF
:103BAC00EC35000884040000CC3B00080100000048
:103BBC00000000000000000000000000D43B0008E2
:103BCC004400000010000000DC3B00080100000075
:103BDC00E43B000802000000270100000002000086
:103BEC004701000000000000D9310008A331000893
:103BFC004931000839160008FB3100084835000827
:103C0C0048350008C8350008D0350008D8350008FC
:103C1C00D8350008001000000030517561647275D1
:103C2C00706564204637323320436F6E74726F6C4C
:103C3C006C657220426F61726420696E697469618F
:103C4C006C697A6564207375636365737366756CF0
:103C5C006C79210A0053797374656D206865617203
:103C6C0074626561742E2E2E0A006D656D6F72790B
:103C7C002D706C616365686F6C64657240393030AF
:103C8C00303030303000464C4153485F3000535296
:103C9C00414D5F30000A06050504010301020101D4
:103CAC00010001696E746572727570742D636F6EAC
:103CBC0074726F6C6C6572403430303133633030F9
:103CCC000072636340343030323338303000677008
:103CDC00696F403430303232303030006770696F89
:103CEC00403430303231433030006770696F4034CB
:103CFC0030303231383030006770696F40343030DA
:103D0C003231343030006770696F403430303231CA
:103D1C00303030006770696F4034303032304330AF
:103D2C0030006770696F40343030323038303000DA
:103D3C006770696F40343030323034303000677027
:103D4C00696F40343030323030303000726573651A
:103D5C00742D636F6E74726F6C6C65720073657228
:103D6C0069616C403430303131303030000000004B
:103D7C00000000000001020304060708096D6169D8
:103D8C006E002A2A2A20426F6F74696E67205A656A
:103D9C0070687972204F53206275696C6420763399
:103DAC002E372E30202A2A2A0A00286E756C6C2990
:0C3DBC00002A666C6F61742A0000000091
:103DC800C12B0008B105000800000000452C0008C0
:103DD800000000000000000000000000200001209A
:103DE80000C20100000103000024F4002C0001209F
:103DF8002C000120FFFFFFFFFFFFFFFFFFFFFFFF7A
:043E0800FFFFFFFFBA
:103E0C0000000000000000000000000000000000A6
:0A3E1C00000000000000000000009C
:043E260015E015E0AE
:04000005080008CD1A
:00000001FF
